00008496D20190903LBANCO                                                                                                                                                                                                                                                                                                                                       
03600000000000000093572   002900001000100000308941570000000324880212019083000000000040000000000000000000000000000000000000000000000000R08                                                               0000000000000000000000                                                              CUOTA DE  201908300000000000000000000000CUOTA DE                  
03600000000001526189775   000701392000100040277754560000000324420472019083000000000220000000000000000000000000000000000000000000000000R04                                                               0000000000000000000000                                                                        201908300000000000000000000000                          
03600000000000000009284   000700160000300040229946870000000324878972019083000000000040000000000000000000000000000000000000000000000000R08                                                               0000000000000000000000                                                              CUOTA DE  201908300000000000000000000000CUOTA DE                  
03600000000000000071695   000701453000300040064440140000000325682182019083000000000013500201909040000000001350020190909000000000135000R08                                                               0000000000000000000000                                                              Cuota Ser 201908300000000000000000000000Cuota Ser                 
03600000000000000071695   000701453000300040064440140000000325696592019083000000000013400201909040000000001340020190909000000000134000R08                                                               0000000000000000000000                                                              Cuota Ser 201908300000000000000000000000Cuota Ser                 
03600000000000000071695   000701453000300040064440140000000325708152019083000000000013550201909040000000001355020190909000000000135500R08                                                               0000000000000000000000                                                              Cuota Ser 201908300000000000000000000000Cuota Ser                 
03600000000000000692847   000700580000300040314803000000000320261232019083000000000050000000000000000000000000000000000000000000000000R10                                                               0000000000000000000000                                                              Naola_BCT 201908300000000000000000000000Naola_BCT                 
03600000000000654932366   000703275000300040180734750000000325939262019083000000000099909201909040000000009990920190909000000000999090R10                                                               0000000000000000000000                                                              no vigent 201908300000000000000000000000no vigent                 
03600000000000654932366   000703275000300040180734750000000325936292019083000000000099909201909040000000009990920190909000000000999090R10                                                               0000000000000000000000                                                              NO VIG VE 201908300000000000000000000000NO VIG VE                 
03600000000000654932366   000703275000300040180734750000000325947302019083000000000099909201909040000000009990920190909000000000999090R10                                                               0000000000000000000000                                                              NO VIG VE 201908300000000000000000000000NO VIG VE                 
03600000000000654932366   000703275000300040180734750000000325947292019083000000000099909201909040000000009990920190909000000000999090R10                                                               0000000000000000000000                                                              NO VIG VE 201908300000000000000000000000NO VIG VE                 
03600000000000654932366   000703275000300040180734750000000325952162019083000000000099909201909040000000009990920190909000000000999090R10                                                               0000000000000000000000                                                              no vigent 201908300000000000000000000000no vigent                 
03600000000000654932366   000703275000300040180734750000000325952152019083000000000099909201909040000000009990920190909000000000999090R10                                                               0000000000000000000000                                                              no vigent 201908300000000000000000000000no vigent                 
03600000000001526178642   000700092000300040349348800000000325683052019083000000000013500201909040000000001350020190909000000000135000R15                                                               0000000000000000000000                                                              Cuota Ser 201908300000000000000000000000Cuota Ser                 
03600000000001526178642   000700092000300040349348800000000325697462019083000000000013400201909040000000001340020190909000000000134000R15                                                               0000000000000000000000                                                              Cuota Ser 201908300000000000000000000000Cuota Ser                 
03600000000001526178642   000700092000300040349348800000000325709022019083000000000013550201909040000000001355020190909000000000135500R15                                                               0000000000000000000000                                                              Cuota Ser 201908300000000000000000000000Cuota Ser                 
03600000000001526182203   000703329000300040175064730000000325682702019083000000000013500201909040000000001350020190909000000000135000R15                                                               0000000000000000000000                                                              Cuota Ser 201908300000000000000000000000Cuota Ser                 
03600000000001526182203   000703329000300040175064730000000325697112019083000000000013400201909040000000001340020190909000000000134000R15                                                               0000000000000000000000                                                              Cuota Ser 201908300000000000000000000000Cuota Ser                 
03600000000001526182203   000703329000300040175064730000000325708672019083000000000013550201909040000000001355020190909000000000135500R15                                                               0000000000000000000000                                                              Cuota Ser 201908300000000000000000000000Cuota Ser                 
03600000000001526182220   000700160000300040232483010000000324695262019083000000000040000000000000000000000000000000000000000000000000R04                                                               0000000000000000000000                                                              CUOTA DE  201908300000000000000000000000CUOTA DE                  
03600000000001526184633   000700900000300040119393630000000324666192019083000000000065044000000000000000000000000000000000000000000000R10                                                               0000000000000000000000                                                              MENSUAL   201908300000000000000000000000MENSUAL                   
03600000000001526184633   000700900000300040119393630000000324204872019083000000000300000000000000000000000000000000000000000000000000R10                                                               0000000000000000000000                                                              MENSUAL   201908300000000000000000000000MENSUAL                   
03600000000001526184633   000700900000300040119393630000000324204882019083000000000220000000000000000000000000000000000000000000000000R10                                                               0000000000000000000000                                                              MENSUAL   201908300000000000000000000000MENSUAL                   
03600000000001526184635   000700900000300040120121130000000324666152019083000000000052242000000000000000000000000000000000000000000000R10                                                               0000000000000000000000                                                              MENSUAL   201908300000000000000000000000MENSUAL                   
03600000000001526184635   000700900000300040120121130000000324204852019083000000000230000000000000000000000000000000000000000000000000R10                                                               0000000000000000000000                                                              MENSUAL   201908300000000000000000000000MENSUAL                   
03600000000001526184635   000700900000300040120121130000000324204862019083000000000300000000000000000000000000000000000000000000000000R10                                                               0000000000000000000000                                                              MENSUAL   201908300000000000000000000000MENSUAL                   
03600000000001526184636   000700900000300040101338650000000324666232019083000000000049066000000000000000000000000000000000000000000000R10                                                               0000000000000000000000                                                              MENSUAL   201908300000000000000000000000MENSUAL                   
03600000000001526184636   000700900000300040101338650000000323896362019083000000000140000000000000000000000000000000000000000000000000R10                                                               0000000000000000000000                                                              32        20190830000000000000000000000032                        
03600000000001526184636   000700900000300040101338650000000324204922019083000000000300000000000000000000000000000000000000000000000000R10                                                               0000000000000000000000                                                              MENSUAL   201908300000000000000000000000MENSUAL                   
03600000000001526184636   000700900000300040101338650000000324204932019083000000000200000000000000000000000000000000000000000000000000R10                                                               0000000000000000000000                                                              MENSUAL   201908300000000000000000000000MENSUAL                   
03600000000001526184636   000700900000300040101338650000000324204942019083000000000350000000000000000000000000000000000000000000000000R10                                                               0000000000000000000000                                                              MENSUAL   201908300000000000000000000000MENSUAL                   
03600000000001526190061   000700382000300040253502280000000325938672019083000000000099909201909040000000009990920190909000000000999090R04                                                               0000000000000000000000                                                              no vigent 201908300000000000000000000000no vigent                 
03600000000001526190061   000700382000300040253502280000000325950972019083000000000099909201909040000000009990920190909000000000999090R04                                                               0000000000000000000000                                                              no vigent 201908300000000000000000000000no vigent                 
03600000000001526190061   000700382000300040253502280000000325950982019083000000000099909201909040000000009990920190909000000000999090R04                                                               0000000000000000000000                                                              no vigent 201908300000000000000000000000no vigent                 
03600000000001526190661   000701828000300040093513440000000325920482019083000000000018000000000000000000000000000000000000000000000000R10                                                               0000000000000000000000                                                              SET UDH 1 201908300000000000000000000000SET UDH 1                 
03600000000001526190697   000700177000300040193194220000000325923892019083000000000015000000000000000000000000000000000000000000000000R15                                                               0000000000000000000000                                                              SET UDH 1 201908300000000000000000000000SET UDH 1                 
03600000000001526190728   000700900000300040049050890000000325938652019083000000000099909201909040000000009990920190909000000000999090R04                                                               0000000000000000000000                                                              no vigent 201908300000000000000000000000no vigent                 
03600000000001526190728   000700900000300040049050890000000325950932019083000000000099909201909040000000009990920190909000000000999090R04                                                               0000000000000000000000                                                              no vigent 201908300000000000000000000000no vigent                 
03600000000001526190728   000700900000300040049050890000000325950942019083000000000099909201909040000000009990920190909000000000999090R04                                                               0000000000000000000000                                                              no vigent 201908300000000000000000000000no vigent                 
03600000000001526191280   000700122000300040123978650000000325919562019083000000000018000000000000000000000000000000000000000000000000R15                                                               0000000000000000000000                                                              SET UDH 1 201908300000000000000000000000SET UDH 1                 
03600000000001528135579   000701972000300048930619870000000325363002019083000000000007000000000000000000000000000000000000000000000000R10                                                               0000000000000000000000                                                              Cuota     201908300000000000000000000000Cuota                     
03600000000001528136265   000701026000300041876007190000000325921132019083000000000013000000000000000000000000000000000000000000000000R04                                                               0000000000000000000000                                                              SET UDH 1 201908300000000000000000000000SET UDH 1                 
03600000000001528136282   000700863000300040234257860000000325939362019083000000000099909201909040000000009990920190909000000000999090R04                                                               0000000000000000000000                                                              no vigent 201908300000000000000000000000no vigent                 
03600000000001528136282   000700863000300040234257860000000325936562019083000000000099909201909040000000009990920190909000000000999090R04                                                               0000000000000000000000                                                              NO VIG VE 201908300000000000000000000000NO VIG VE                 
03600000000001528136282   000700863000300040234257860000000325947472019083000000000099909201909040000000009990920190909000000000999090R04                                                               0000000000000000000000                                                              NO VIG VE 201908300000000000000000000000NO VIG VE                 
03600000000001528136282   000700863000300040234257860000000325947482019083000000000099909201909040000000009990920190909000000000999090R04                                                               0000000000000000000000                                                              NO VIG VE 201908300000000000000000000000NO VIG VE                 
03600000000001528136282   000700863000300040234257860000000325952352019083000000000099909201909040000000009990920190909000000000999090R04                                                               0000000000000000000000                                                              no vigent 201908300000000000000000000000no vigent                 
03600000000001528136282   000700863000300040234257860000000325952362019083000000000099909201909040000000009990920190909000000000999090R04                                                               0000000000000000000000                                                              no vigent 201908300000000000000000000000no vigent                 
03600000000001528137119   000700764000300048900116190000000325930332019083000000000150023201909040000000015002320190909000000001500230R15                                                               0000000000000000000000                                                              novigenter201908300000000000000000000000novigenter                
03600000000001528137119   000700764000300048900116190000000325933882019083000000000150023201909040000000015002320190909000000001500230R15                                                               0000000000000000000000                                                              novigenter201908300000000000000000000000novigenter                
03600000000001528137119   000700764000300048900116190000000325934542019083000000000150023201909040000000015002320190909000000001500230R15                                                               0000000000000000000000                                                              novigenter201908300000000000000000000000novigenter                
03600000000001528137119   000700764000300048900116190000000325944862019083000000000150009201909040000000015000920190909000000001500090R15                                                               0000000000000000000000                                                              mas90VeroS201908300000000000000000000000mas90VeroS                
03600000000001528137119   000700764000300048900116190000000325965732019083000000000150009201909040000000015000920190909000000001500090R15                                                               0000000000000000000000                                                              mas90VeroS201908300000000000000000000000mas90VeroS                
03600000000001528137119   000700764000300048900116190000000325966222019083000000000150009201909040000000015000920190909000000001500090R15                                                               0000000000000000000000                                                              mas90VeroS201908300000000000000000000000mas90VeroS                
03600000000001528139242   000701026000300041673262620000000325915002019083000000000015000000000000000000000000000000000000000000000000R10                                                               0000000000000000000000                                                              SET UDH 1 201908300000000000000000000000SET UDH 1                 
03600000000001528139243   000701361000300040104183400000000325912162019083000000000015000000000000000000000000000000000000000000000000R02                                                               0000000000000000000000                                                              SET UDH 1 201908300000000000000000000000SET UDH 1                 
03600000000001528139251   000702364000300040226807060000000320903652019083000000000057100000000000000000000000000000000000000000000000R15                                                               0000000000000000000000                                                              Naola_BCT 201908300000000000000000000000Naola_BCT                 
03600000000001528140555   000700184000300040358681390000000325939422019083000000000099909201909040000000009990920190909000000000999090R04                                                               0000000000000000000000                                                              no vigent 201908300000000000000000000000no vigent                 
03600000000001528140555   000700184000300040358681390000000325952472019083000000000099909201909040000000009990920190909000000000999090R04                                                               0000000000000000000000                                                              no vigent 201908300000000000000000000000no vigent                 
03600000000001528140555   000700184000300040358681390000000325952482019083000000000099909201909040000000009990920190909000000000999090R04                                                               0000000000000000000000                                                              no vigent 201908300000000000000000000000no vigent                 
03600000000001528140569   000700917000300040275700790000000325913222019083000000000013000000000000000000000000000000000000000000000000R10                                                               0000000000000000000000                                                              SET UDH 1 201908300000000000000000000000SET UDH 1                 
03600000000001528140578   000709990000300040248916890000000325925272019083000000000015000000000000000000000000000000000000000000000000R10                                                               0000000000000000000000                                                              SET UDH 1 201908300000000000000000000000SET UDH 1                 
03600000000001528140588   000700580000300040155421560000000325920642019083000000000018000000000000000000000000000000000000000000000000R10                                                               0000000000000000000000                                                              SET UDH 1 201908300000000000000000000000SET UDH 1                 
03600000000001528140629   000700900000300040122653880000000324666212019083000000000040018000000000000000000000000000000000000000000000R04                                                               0000000000000000000000                                                              MENSUAL   201908300000000000000000000000MENSUAL                   
03600000000001528140629   000700900000300040122653880000000323896302019083000000000084000000000000000000000000000000000000000000000000R04                                                               0000000000000000000000                                                              59        20190830000000000000000000000059                        
03600000000001528140629   000700900000300040122653880000000323896342019083000000000056000000000000000000000000000000000000000000000000R04                                                               0000000000000000000000                                                              37        20190830000000000000000000000037                        
03600000000001528140629   000700900000300040122653880000000324204892019083000000000300000000000000000000000000000000000000000000000000R04                                                               0000000000000000000000                                                              MENSUAL   201908300000000000000000000000MENSUAL                   
03600000000001528140629   000700900000300040122653880000000324204902019083000000000200000000000000000000000000000000000000000000000000R04                                                               0000000000000000000000                                                              MENSUAL   201908300000000000000000000000MENSUAL                   
03600000000001528140629   000700900000300040122653880000000324204912019083000000000400000000000000000000000000000000000000000000000000R04                                                               0000000000000000000000                                                              MENSUAL   201908300000000000000000000000MENSUAL                   
03600000000001528142853   000700900000300040124672720000000324666172019083000000000062232000000000000000000000000000000000000000000000R04                                                               0000000000000000000000                                                              MENSUAL   201908300000000000000000000000MENSUAL                   
03600000000001528142862   000701224000300041103555160000000324666392019083000000000047201000000000000000000000000000000000000000000000R04                                                               0000000000000000000000                                                              MENSUAL   201908300000000000000000000000MENSUAL                   
03600000000001528143011   000701613000300040377201180000000325690312019083000000000013500201909040000000001350020190909000000000135000R15                                                               0000000000000000000000                                                              Cuota Ser 201908300000000000000000000000Cuota Ser                 
03600000000001528143011   000701613000300040377201180000000325701912019083000000000013400201909040000000001340020190909000000000134000R15                                                               0000000000000000000000                                                              Cuota Ser 201908300000000000000000000000Cuota Ser                 
03600000000001528143011   000701613000300040377201180000000325716372019083000000000013550201909040000000001355020190909000000000135500R15                                                               0000000000000000000000                                                              Cuota Ser 201908300000000000000000000000Cuota Ser                 
03600000000001528143013   000705493000300040024554700000000325678672019083000000000013500201909040000000001350020190909000000000135000R10                                                               0000000000000000000000                                                              Cuota Ser 201908300000000000000000000000Cuota Ser                 
03600000000001528143013   000705493000300040024554700000000325695612019083000000000013400201909040000000001340020190909000000000134000R10                                                               0000000000000000000000                                                              Cuota Ser 201908300000000000000000000000Cuota Ser                 
03600000000001528143013   000705493000300040024554700000000325707172019083000000000013550201909040000000001355020190909000000000135500R10                                                               0000000000000000000000                                                              Cuota Ser 201908300000000000000000000000Cuota Ser                 
03600000000001528143062   000703138000300040261191100000000325942442019083000000000099909201909040000000009990920190909000000000999090R15                                                               0000000000000000000000                                                              VIGVER    201908300000000000000000000000VIGVER                    
03600000000001528143062   000703138000300040261191100000000325960312019083000000000099909201909040000000009990920190909000000000999090R15                                                               0000000000000000000000                                                              VIGVER    201908300000000000000000000000VIGVER                    
03600000000001528143062   000703138000300040261191100000000325960322019083000000000099909201909040000000009990920190909000000000999090R15                                                               0000000000000000000000                                                              VIGVER    201908300000000000000000000000VIGVER                    
03600000000001528144775   000701811000300040245321110000000325924832019083000000000015000000000000000000000000000000000000000000000000R10                                                               0000000000000000000000                                                              SET UDH 1 201908300000000000000000000000SET UDH 1                 
03600000000001528146566   000700689000300040184071260000000325912402019083000000000015000000000000000000000000000000000000000000000000R15                                                               0000000000000000000000                                                              SET UDH 1 201908300000000000000000000000SET UDH 1                 
03600000000001528148275   000700085000300040354295740000000325167732019083000000000079000000000000000000000000000000000000000000000000R10                                                               0000000000000000000000                                                              Naola_PLN 201908300000000000000000000000Naola_PLN                 
03600000000001528148275   000700085000300040354295740000000325914272019083000000000015000000000000000000000000000000000000000000000000R10                                                               0000000000000000000000                                                              SET UDH 1 201908300000000000000000000000SET UDH 1                 
03600000000001528149240   000701293000300040498408110000000325168702019083000000000014780000000000000000000000000000000000000000000000R10                                                               0000000000000000000000                                                              Gastos y/ 201908300000000000000000000000Gastos y/                 
03600000000001529383870   000702340000300040155209810000000325921872019083000000000013000000000000000000000000000000000000000000000000R02                                                               0000000000000000000000                                                              SET UDH 1 201908300000000000000000000000SET UDH 1                 
03600000000001529385009   000700177000300040175005290000000325938992019083000000000099909201909040000000009990920190909000000000999090R02                                                               0000000000000000000000                                                              no vigent 201908300000000000000000000000no vigent                 
03600000000001529385009   000700177000300040175005290000000325951612019083000000000099909201909040000000009990920190909000000000999090R02                                                               0000000000000000000000                                                              no vigent 201908300000000000000000000000no vigent                 
03600000000001529385009   000700177000300040175005290000000325951622019083000000000099909201909040000000009990920190909000000000999090R02                                                               0000000000000000000000                                                              no vigent 201908300000000000000000000000no vigent                 
03600000000001529388586   000703039000300040131601870000000325821512019083000000000073301000000000000000000000000000000000000000000000R04                                                               0000000000000000000000                                                              560       201908300000000000000000000000560                       
03600000000001529388586   000703039000300040131601870000000325821622019083000000000073301000000000000000000000000000000000000000000000R04                                                               0000000000000000000000                                                              519       201908300000000000000000000000519                       
03600000000001529388586   000703039000300040131601870000000325821952019083000000000110001000000000000000000000000000000000000000000000R04                                                               0000000000000000000000                                                              401       201908300000000000000000000000401                       
03600000000001529388586   000703039000300040131601870000000325822552019083000000000157501000000000000000000000000000000000000000000000R04                                                               0000000000000000000000                                                              241       201908300000000000000000000000241                       
03600000000001529388586   000703039000300040131601870000000323895322019083000000000073300000000000000000000000000000000000000000000000R04                                                               0000000000000000000000                                                              560       201908300000000000000000000000560                       
03600000000001529388586   000703039000300040131601870000000323895442019083000000000073300000000000000000000000000000000000000000000000R04                                                               0000000000000000000000                                                              519       201908300000000000000000000000519                       
03600000000001529388586   000703039000300040131601870000000323895782019083000000000110000000000000000000000000000000000000000000000000R04                                                               0000000000000000000000                                                              401       201908300000000000000000000000401                       
03600000000001529388586   000703039000300040131601870000000323896082019083000000000157500000000000000000000000000000000000000000000000R04                                                               0000000000000000000000                                                              241       201908300000000000000000000000241                       
03600000000001529388957   000700061000300040822027970000000325877992019083000000000115022201909040000000011502220190909000000001150220R04                                                               0000000000000000000000                                                              ggrouh    201908300000000000000000000000ggrouh                    
03600000000001529388957   000700061000300040822027970000000325904372019083000000000115022201909040000000011502220190909000000001150220R04                                                               0000000000000000000000                                                              ggrouh    201908300000000000000000000000ggrouh                    
03600000000001529388957   000700061000300040822027970000000325932042019083000000000115022201909040000000011502220190909000000001150220R04                                                               0000000000000000000000                                                              ggrouh    201908300000000000000000000000ggrouh                    
03600000000001529392558   000700788000300040197734110000000325684082019083000000000013500201909040000000001350020190909000000000135000R10                                                               0000000000000000000000                                                              Cuota Ser 201908300000000000000000000000Cuota Ser                 
03600000000001529392558   000700788000300040197734110000000325701172019083000000000013400201909040000000001340020190909000000000134000R10                                                               0000000000000000000000                                                              Cuota Ser 201908300000000000000000000000Cuota Ser                 
03600000000001529392558   000700788000300040197734110000000325715632019083000000000013550201909040000000001355020190909000000000135500R10                                                               0000000000000000000000                                                              Cuota Ser 201908300000000000000000000000Cuota Ser                 
03600000000001529393695   000700191000300040451312210000000325926372019083000000000018000000000000000000000000000000000000000000000000R10                                                               0000000000000000000000                                                              SET UDH 1 201908300000000000000000000000SET UDH 1                 
03600000000001529414252   000700788000300040251178630000000325684442019083000000000013500201909040000000001350020190909000000000135000R10                                                               0000000000000000000000                                                              Cuota Ser 201908300000000000000000000000Cuota Ser                 
03600000000001529414252   000700788000300040251178630000000325701532019083000000000013400201909040000000001340020190909000000000134000R10                                                               0000000000000000000000                                                              Cuota Ser 201908300000000000000000000000Cuota Ser                 
03600000000001529414252   000700788000300040251178630000000325715992019083000000000013550201909040000000001355020190909000000000135500R10                                                               0000000000000000000000                                                              Cuota Ser 201908300000000000000000000000Cuota Ser                 
03600000000001529414785   000701583000300040068551840000000324690642019083000000000040000000000000000000000000000000000000000000000000R04                                                               0000000000000000000000                                                              CUOTA DE  201908300000000000000000000000CUOTA DE                  
03600000000001529415509   000700078000300040204056020000000325926582019083000000000013000000000000000000000000000000000000000000000000R02                                                               0000000000000000000000                                                              SET UDH 1 201908300000000000000000000000SET UDH 1                 
03600000000001529415646   000700337000300040196924130000000325925642019083000000000013000000000000000000000000000000000000000000000000R10                                                               0000000000000000000000                                                              SET UDH 1 201908300000000000000000000000SET UDH 1                 
03600000000001529417378   000700160000300040181889970000000325553542019083000000000275001000000000000000000000000000000000000000000000R15                                                               0000000000000000000000                                                              067       201908300000000000000000000000067                       
03600000000001529417378   000700160000300040181889970000000323885572019083000000000275000000000000000000000000000000000000000000000000R15                                                               0000000000000000000000                                                              067       201908300000000000000000000000067                       
03600000000001529417631   000700238000300040258105190000000325923772019083000000000013000000000000000000000000000000000000000000000000R10                                                               0000000000000000000000                                                              SET UDH 1 201908300000000000000000000000SET UDH 1                 
03600000000001529417646   000700559000300040348317160000000325683212019083000000000013500201909040000000001350020190909000000000135000R15                                                               0000000000000000000000                                                              Cuota Ser 201908300000000000000000000000Cuota Ser                 
03600000000001529417646   000700559000300040348317160000000325697622019083000000000013400201909040000000001340020190909000000000134000R15                                                               0000000000000000000000                                                              Cuota Ser 201908300000000000000000000000Cuota Ser                 
03600000000001529417646   000700559000300040348317160000000325714762019083000000000013550201909040000000001355020190909000000000135500R15                                                               0000000000000000000000                                                              Cuota Ser 201908300000000000000000000000Cuota Ser                 
03600000000001529417689   000701668000300040287423030000000325683742019083000000000013500201909040000000001350020190909000000000135000R10                                                               0000000000000000000000                                                              Cuota Ser 201908300000000000000000000000Cuota Ser                 
03600000000001529417689   000701668000300040287423030000000325698152019083000000000013400201909040000000001340020190909000000000134000R10                                                               0000000000000000000000                                                              Cuota Ser 201908300000000000000000000000Cuota Ser                 
03600000000001529417689   000701668000300040287423030000000325715292019083000000000013550201909040000000001355020190909000000000135500R10                                                               0000000000000000000000                                                              Cuota Ser 201908300000000000000000000000Cuota Ser                 
03600000000001529421052   000701286000300040224146530000000325937712019083000000000099909201909040000000009990920190909000000000999090R04                                                               0000000000000000000000                                                              NO VIG VE 201908300000000000000000000000NO VIG VE                 
03600000000001529421052   000701286000300040224146530000000325948572019083000000000099909201909040000000009990920190909000000000999090R04                                                               0000000000000000000000                                                              NO VIG VE 201908300000000000000000000000NO VIG VE                 
03600000000001529421052   000701286000300040224146530000000325948582019083000000000099909201909040000000009990920190909000000000999090R04                                                               0000000000000000000000                                                              NO VIG VE 201908300000000000000000000000NO VIG VE                 
03600000000001529423279   000700160000300040228044140000000325119732019083000000000021000000000000000000000000000000000000000000000000R15                                                               0000000000000000000000                                                              Cuota AMI 201908300000000000000000000000Cuota AMI                 
03600000000001529423279   000700160000300040228044140000000325119742019083000000000021000000000000000000000000000000000000000000000000R15                                                               0000000000000000000000                                                              Cuota AMI 201908300000000000000000000000Cuota AMI                 
03600000000001529427033   000703138000300040170976540000000325913882019083000000000018000000000000000000000000000000000000000000000000R10                                                               0000000000000000000000                                                              SET UDH 1 201908300000000000000000000000SET UDH 1                 
03600000000001529427046   000700788000300040354368420000000325684092019083000000000013500201909040000000001350020190909000000000135000R10                                                               0000000000000000000000                                                              Cuota Ser 201908300000000000000000000000Cuota Ser                 
03600000000001529427046   000700788000300040354368420000000325701182019083000000000013400201909040000000001340020190909000000000134000R10                                                               0000000000000000000000                                                              Cuota Ser 201908300000000000000000000000Cuota Ser                 
03600000000001529427046   000700788000300040354368420000000325715642019083000000000013550201909040000000001355020190909000000000135500R10                                                               0000000000000000000000                                                              Cuota Ser 201908300000000000000000000000Cuota Ser                 
03600000000001529427140   000702173000300040240982710000000325216522019083000000000075000000000000000000000000000000000000000000000000R15                                                               0000000000000000000000                                                              Naola_PLN 201908300000000000000000000000Naola_PLN                 
03600000000001529427140   000702173000300040240982710000000325216532019083000000000075000000000000000000000000000000000000000000000000R15                                                               0000000000000000000000                                                              Naola_PLN 201908300000000000000000000000Naola_PLN                 
03600000000001529427140   000702173000300040240982710000000325216542019083000000000075000000000000000000000000000000000000000000000000R15                                                               0000000000000000000000                                                              Naola_PLN 201908300000000000000000000000Naola_PLN                 
03600000000001529427140   000702173000300040240982710000000325216552019083000000000075000000000000000000000000000000000000000000000000R15                                                               0000000000000000000000                                                              Naola_PLN 201908300000000000000000000000Naola_PLN                 
03600000000001529427365   000701262000300040099457670000000325939712019083000000000099909201909040000000009990920190909000000000999090R10                                                               0000000000000000000000                                                              no vigent 201908300000000000000000000000no vigent                 
03600000000001529427365   000701262000300040099457670000000325952942019083000000000099909201909040000000009990920190909000000000999090R10                                                               0000000000000000000000                                                              no vigent 201908300000000000000000000000no vigent                 
03600000000001529427365   000701262000300040099457670000000325952932019083000000000099909201909040000000009990920190909000000000999090R10                                                               0000000000000000000000                                                              no vigent 201908300000000000000000000000no vigent                 
03600000000001529428051   000700696000300040137251660000000325920382019083000000000018000000000000000000000000000000000000000000000000R10                                                               0000000000000000000000                                                              SET UDH 1 201908300000000000000000000000SET UDH 1                 
03600000000001529428052   000701453000300040100201960000000325912872019083000000000013000000000000000000000000000000000000000000000000R15                                                               0000000000000000000000                                                              SET UDH 1 201908300000000000000000000000SET UDH 1                 
03600000000001529428054   000700870000300040151696490000000325911892019083000000000013000000000000000000000000000000000000000000000000R10                                                               0000000000000000000000                                                              SET UDH 1 201908300000000000000000000000SET UDH 1                 
03600000000001529430112   000700535000300048994056190000000325678832019083000000000013500201909040000000001350020190909000000000135000R10                                                               0000000000000000000000                                                              Cuota Ser 201908300000000000000000000000Cuota Ser                 
03600000000001529430112   000700535000300048994056190000000325695772019083000000000013400201909040000000001340020190909000000000134000R10                                                               0000000000000000000000                                                              Cuota Ser 201908300000000000000000000000Cuota Ser                 
03600000000001529430112   000700535000300048994056190000000325707332019083000000000013550201909040000000001355020190909000000000135500R10                                                               0000000000000000000000                                                              Cuota Ser 201908300000000000000000000000Cuota Ser                 
03600000000001529430651   000701392000300040462209400000000325679012019083000000000013500201909040000000001350020190909000000000135000R02                                                               0000000000000000000000                                                              Cuota Ser 201908300000000000000000000000Cuota Ser                 
03600000000001529430651   000701392000300040462209400000000325695952019083000000000013400201909040000000001340020190909000000000134000R02                                                               0000000000000000000000                                                              Cuota Ser 201908300000000000000000000000Cuota Ser                 
03600000000001529430651   000701392000300040462209400000000325707512019083000000000013550201909040000000001355020190909000000000135500R02                                                               0000000000000000000000                                                              Cuota Ser 201908300000000000000000000000Cuota Ser                 
03600000000001529432746   000701071000300041481509760000000325935792019083000000000099909201909040000000009990920190909000000000999090R15                                                               0000000000000000000000                                                              NO VIG VE 201908300000000000000000000000NO VIG VE                 
03600000000001529432746   000701071000300041481509760000000325946292019083000000000099909201909040000000009990920190909000000000999090R15                                                               0000000000000000000000                                                              NO VIG VE 201908300000000000000000000000NO VIG VE                 
03600000000001529432746   000701071000300041481509760000000325946302019083000000000099909201909040000000009990920190909000000000999090R15                                                               0000000000000000000000                                                              NO VIG VE 201908300000000000000000000000NO VIG VE                 
03600000000001529433186   000700627000300040150703250000000325494952019083000000000070000000000000000000000000000000000000000000000000R15                                                               0000000000000000000000                                                              AMEL      201908300000000000000000000000AMEL                      
03600000000001529436200   000703992000300040020699940000000325391692019083000000000152948000000000000000000000000000000000000000000000R15                                                               0000000000000000000000                                                              AMEL      201908300000000000000000000000AMEL                      
03600000000001529436200   000703992000300040020699940000000325495562019083000000000070000000000000000000000000000000000000000000000000R15                                                               0000000000000000000000                                                              AMEL      201908300000000000000000000000AMEL                      
03600000000001529436387   000701392000300040365416080000000325939652019083000000000099909201909040000000009990920190909000000000999090R10                                                               0000000000000000000000                                                              no vigent 201908300000000000000000000000no vigent                 
03600000000001529436387   000701392000300040365416080000000325940252019083000000000099909201909040000000009990920190909000000000999090R10                                                               0000000000000000000000                                                              VERO GGRO 201908300000000000000000000000VERO GGRO                 
03600000000001529436387   000701392000300040365416080000000325952822019083000000000099909201909040000000009990920190909000000000999090R10                                                               0000000000000000000000                                                              no vigent 201908300000000000000000000000no vigent                 
03600000000001529436387   000701392000300040365416080000000325952812019083000000000099909201909040000000009990920190909000000000999090R10                                                               0000000000000000000000                                                              no vigent 201908300000000000000000000000no vigent                 
03600000000001529436387   000701392000300040365416080000000325953972019083000000000099909201909040000000009990920190909000000000999090R10                                                               0000000000000000000000                                                              VERO GGRO 201908300000000000000000000000VERO GGRO                 
03600000000001529436387   000701392000300040365416080000000325954092019083000000000099909201909040000000009990920190909000000000999090R10                                                               0000000000000000000000                                                              VERO GGRO 201908300000000000000000000000VERO GGRO                 
03600000000001529436490   000701293000300040167347100000000325168812019083000000000014780000000000000000000000000000000000000000000000R10                                                               0000000000000000000000                                                              Gastos y/ 201908300000000000000000000000Gastos y/                 
03600000000001529436490   000701293000300040167347100000000325393362019083000000000222329000000000000000000000000000000000000000000000R10                                                               0000000000000000000000                                                              AMEL      201908300000000000000000000000AMEL                      
03600000000001529439146   000701538000300040083811260000000325938822019083000000000099909201909040000000009990920190909000000000999090R10                                                               0000000000000000000000                                                              no vigent 201908300000000000000000000000no vigent                 
03600000000001529439146   000701538000300040083811260000000325937652019083000000000099909201909040000000009990920190909000000000999090R10                                                               0000000000000000000000                                                              NO VIG VE 201908300000000000000000000000NO VIG VE                 
03600000000001529439146   000701538000300040083811260000000325948512019083000000000099909201909040000000009990920190909000000000999090R10                                                               0000000000000000000000                                                              NO VIG VE 201908300000000000000000000000NO VIG VE                 
03600000000001529439146   000701538000300040083811260000000325948502019083000000000099909201909040000000009990920190909000000000999090R10                                                               0000000000000000000000                                                              NO VIG VE 201908300000000000000000000000NO VIG VE                 
03600000000001529439146   000701538000300040083811260000000325951272019083000000000099909201909040000000009990920190909000000000999090R10                                                               0000000000000000000000                                                              no vigent 201908300000000000000000000000no vigent                 
03600000000001529439146   000701538000300040083811260000000325951282019083000000000099909201909040000000009990920190909000000000999090R10                                                               0000000000000000000000                                                              no vigent 201908300000000000000000000000no vigent                 
03600000000001529439167   000701583000300040239798490000000325941262019083000000000099909201909040000000009990920190909000000000999090R04                                                               0000000000000000000000                                                              MORA+90VE 201908300000000000000000000000MORA+90VE                 
03600000000001529439167   000701583000300040239798490000000325957672019083000000000099909201909040000000009990920190909000000000999090R04                                                               0000000000000000000000                                                              MORA+90VE 201908300000000000000000000000MORA+90VE                 
03600000000001529439167   000701583000300040239798490000000325958032019083000000000099909201909040000000009990920190909000000000999090R04                                                               0000000000000000000000                                                              MORA+90VE 201908300000000000000000000000MORA+90VE                 
03600000000001529439168   000700153000300040539449870000000325938512019083000000000099909201909040000000009990920190909000000000999090R04                                                               0000000000000000000000                                                              no vigent 201908300000000000000000000000no vigent                 
03600000000001529439168   000700153000300040539449870000000325936862019083000000000099909201909040000000009990920190909000000000999090R04                                                               0000000000000000000000                                                              NO VIG VE 201908300000000000000000000000NO VIG VE                 
03600000000001529439168   000700153000300040539449870000000325947702019083000000000099909201909040000000009990920190909000000000999090R04                                                               0000000000000000000000                                                              NO VIG VE 201908300000000000000000000000NO VIG VE                 
03600000000001529439168   000700153000300040539449870000000325947712019083000000000099909201909040000000009990920190909000000000999090R04                                                               0000000000000000000000                                                              NO VIG VE 201908300000000000000000000000NO VIG VE                 
03600000000001529439168   000700153000300040539449870000000325950652019083000000000099909201909040000000009990920190909000000000999090R04                                                               0000000000000000000000                                                              no vigent 201908300000000000000000000000no vigent                 
03600000000001529439168   000700153000300040539449870000000325950662019083000000000099909201909040000000009990920190909000000000999090R04                                                               0000000000000000000000                                                              no vigent 201908300000000000000000000000no vigent                 
03600000000001529439523   000703381000300040175854090000000325878122019083000000000115022201909040000000011502220190909000000001150220R02                                                               0000000000000000000000                                                              ggrouh    201908300000000000000000000000ggrouh                    
03600000000001529439523   000703381000300040175854090000000325904472019083000000000115022201909040000000011502220190909000000001150220R02                                                               0000000000000000000000                                                              ggrouh    201908300000000000000000000000ggrouh                    
03600000000001529439523   000703381000300040175854090000000325932142019083000000000115022201909040000000011502220190909000000001150220R02                                                               0000000000000000000000                                                              ggrouh    201908300000000000000000000000ggrouh                    
03600000000001529439530   000703718000300040047368450000000325878232019083000000000115022201909040000000011502220190909000000001150220R10                                                               0000000000000000000000                                                              ggrouh    201908300000000000000000000000ggrouh                    
03600000000001529439530   000703718000300040047368450000000325904542019083000000000115022201909040000000011502220190909000000001150220R10                                                               0000000000000000000000                                                              ggrouh    201908300000000000000000000000ggrouh                    
03600000000001529439530   000703718000300040047368450000000325932212019083000000000115022201909040000000011502220190909000000001150220R10                                                               0000000000000000000000                                                              ggrouh    201908300000000000000000000000ggrouh                    
03600000000001529439530   000703718000300040047368450000000325938622019083000000000099909201909040000000009990920190909000000000999090R10                                                               0000000000000000000000                                                              no vigent 201908300000000000000000000000no vigent                 
03600000000001529439530   000703718000300040047368450000000325937172019083000000000099909201909040000000009990920190909000000000999090R10                                                               0000000000000000000000                                                              NO VIG VE 201908300000000000000000000000NO VIG VE                 
03600000000001529439530   000703718000300040047368450000000325947972019083000000000099909201909040000000009990920190909000000000999090R10                                                               0000000000000000000000                                                              NO VIG VE 201908300000000000000000000000NO VIG VE                 
03600000000001529439530   000703718000300040047368450000000325947962019083000000000099909201909040000000009990920190909000000000999090R10                                                               0000000000000000000000                                                              NO VIG VE 201908300000000000000000000000NO VIG VE                 
03600000000001529439530   000703718000300040047368450000000325950882019083000000000099909201909040000000009990920190909000000000999090R10                                                               0000000000000000000000                                                              no vigent 201908300000000000000000000000no vigent                 
03600000000001529439530   000703718000300040047368450000000325950872019083000000000099909201909040000000009990920190909000000000999090R10                                                               0000000000000000000000                                                              no vigent 201908300000000000000000000000no vigent                 
03600000000001529439589   000700382000300040178055630000000325938352019083000000000099909201909040000000009990920190909000000000999090R10                                                               0000000000000000000000                                                              NO VIG VE 201908300000000000000000000000NO VIG VE                 
03600000000001529439589   000700382000300040178055630000000325939092019083000000000099909201909040000000009990920190909000000000999090R10                                                               0000000000000000000000                                                              no vigent 201908300000000000000000000000no vigent                 
03600000000001529439589   000700382000300040178055630000000325949262019083000000000099909201909040000000009990920190909000000000999090R10                                                               0000000000000000000000                                                              NO VIG VE 201908300000000000000000000000NO VIG VE                 
03600000000001529439589   000700382000300040178055630000000325949252019083000000000099909201909040000000009990920190909000000000999090R10                                                               0000000000000000000000                                                              NO VIG VE 201908300000000000000000000000NO VIG VE                 
03600000000001529439589   000700382000300040178055630000000325951822019083000000000099909201909040000000009990920190909000000000999090R10                                                               0000000000000000000000                                                              no vigent 201908300000000000000000000000no vigent                 
03600000000001529439589   000700382000300040178055630000000325951812019083000000000099909201909040000000009990920190909000000000999090R10                                                               0000000000000000000000                                                              no vigent 201908300000000000000000000000no vigent                 
03600000000001529439597   000701392000300040237922590000000325938952019083000000000099909201909040000000009990920190909000000000999090R04                                                               0000000000000000000000                                                              no vigent 201908300000000000000000000000no vigent                 
03600000000001529439597   000701392000300040237922590000000325951532019083000000000099909201909040000000009990920190909000000000999090R04                                                               0000000000000000000000                                                              no vigent 201908300000000000000000000000no vigent                 
03600000000001529439597   000701392000300040237922590000000325951542019083000000000099909201909040000000009990920190909000000000999090R04                                                               0000000000000000000000                                                              no vigent 201908300000000000000000000000no vigent                 
03600000000001529439614   000702357000300040188263380000000325939272019083000000000099909201909040000000009990920190909000000000999090R04                                                               0000000000000000000000                                                              no vigent 201908300000000000000000000000no vigent                 
03600000000001529439614   000702357000300040188263380000000325936302019083000000000099909201909040000000009990920190909000000000999090R04                                                               0000000000000000000000                                                              NO VIG VE 201908300000000000000000000000NO VIG VE                 
03600000000001529439614   000702357000300040188263380000000325947322019083000000000099909201909040000000009990920190909000000000999090R04                                                               0000000000000000000000                                                              NO VIG VE 201908300000000000000000000000NO VIG VE                 
03600000000001529439614   000702357000300040188263380000000325947312019083000000000099909201909040000000009990920190909000000000999090R04                                                               0000000000000000000000                                                              NO VIG VE 201908300000000000000000000000NO VIG VE                 
03600000000001529439614   000702357000300040188263380000000325952182019083000000000099909201909040000000009990920190909000000000999090R04                                                               0000000000000000000000                                                              no vigent 201908300000000000000000000000no vigent                 
03600000000001529439614   000702357000300040188263380000000325952172019083000000000099909201909040000000009990920190909000000000999090R04                                                               0000000000000000000000                                                              no vigent 201908300000000000000000000000no vigent                 
03600000000001529439617   000701224000300041346644940000000319002152019083000000000149400201909040000000014940020190909000000001494000R15                                                               0000000000000000000000                                                              U         201908300000000000000000000000U                         
03600000000001529439751   000703817000300040044131400000000325938982019083000000000099909201909040000000009990920190909000000000999090R15                                                               0000000000000000000000                                                              no vigent 201908300000000000000000000000no vigent                 
03600000000001529439751   000703817000300040044131400000000325951592019083000000000099909201909040000000009990920190909000000000999090R15                                                               0000000000000000000000                                                              no vigent 201908300000000000000000000000no vigent                 
03600000000001529439751   000703817000300040044131400000000325951602019083000000000099909201909040000000009990920190909000000000999090R15                                                               0000000000000000000000                                                              no vigent 201908300000000000000000000000no vigent                 
03600000000001529439755   000701651000300040213403510000000325938212019083000000000099909201909040000000009990920190909000000000999090R10                                                               0000000000000000000000                                                              NO VIG VE 201908300000000000000000000000NO VIG VE                 
03600000000001529439755   000701651000300040213403510000000325939032019083000000000099909201909040000000009990920190909000000000999090R10                                                               0000000000000000000000                                                              no vigent 201908300000000000000000000000no vigent                 
03600000000001529439755   000701651000300040213403510000000325949092019083000000000099909201909040000000009990920190909000000000999090R10                                                               0000000000000000000000                                                              NO VIG VE 201908300000000000000000000000NO VIG VE                 
03600000000001529439755   000701651000300040213403510000000325949102019083000000000099909201909040000000009990920190909000000000999090R10                                                               0000000000000000000000                                                              NO VIG VE 201908300000000000000000000000NO VIG VE                 
03600000000001529439755   000701651000300040213403510000000325951692019083000000000099909201909040000000009990920190909000000000999090R10                                                               0000000000000000000000                                                              no vigent 201908300000000000000000000000no vigent                 
03600000000001529439755   000701651000300040213403510000000325951702019083000000000099909201909040000000009990920190909000000000999090R10                                                               0000000000000000000000                                                              no vigent 201908300000000000000000000000no vigent                 
03600000000001529439763   000700917000300040266353680000000325939312019083000000000099909201909040000000009990920190909000000000999090R10                                                               0000000000000000000000                                                              no vigent 201908300000000000000000000000no vigent                 
03600000000001529439763   000700917000300040266353680000000325936442019083000000000099909201909040000000009990920190909000000000999090R10                                                               0000000000000000000000                                                              NO VIG VE 201908300000000000000000000000NO VIG VE                 
03600000000001529439763   000700917000300040266353680000000325941012019083000000000099909201909040000000009990920190909000000000999090R10                                                               0000000000000000000000                                                              MORA+90VE 201908300000000000000000000000MORA+90VE                 
03600000000001529439763   000700917000300040266353680000000325947392019083000000000099909201909040000000009990920190909000000000999090R10                                                               0000000000000000000000                                                              NO VIG VE 201908300000000000000000000000NO VIG VE                 
03600000000001529439763   000700917000300040266353680000000325947402019083000000000099909201909040000000009990920190909000000000999090R10                                                               0000000000000000000000                                                              NO VIG VE 201908300000000000000000000000NO VIG VE                 
03600000000001529439763   000700917000300040266353680000000325952262019083000000000099909201909040000000009990920190909000000000999090R10                                                               0000000000000000000000                                                              no vigent 201908300000000000000000000000no vigent                 
03600000000001529439763   000700917000300040266353680000000325952252019083000000000099909201909040000000009990920190909000000000999090R10                                                               0000000000000000000000                                                              no vigent 201908300000000000000000000000no vigent                 
03600000000001529439763   000700917000300040266353680000000325957082019083000000000099909201909040000000009990920190909000000000999090R10                                                               0000000000000000000000                                                              MORA+90VE 201908300000000000000000000000MORA+90VE                 
03600000000001529439763   000700917000300040266353680000000325957722019083000000000099909201909040000000009990920190909000000000999090R10                                                               0000000000000000000000                                                              MORA+90VE 201908300000000000000000000000MORA+90VE                 
03600000000001529439768   000701224000300040422142350000000325678802019083000000000013500201909040000000001350020190909000000000135000R10                                                               0000000000000000000000                                                              Cuota Ser 201908300000000000000000000000Cuota Ser                 
03600000000001529439768   000701224000300040422142350000000325695742019083000000000013400201909040000000001340020190909000000000134000R10                                                               0000000000000000000000                                                              Cuota Ser 201908300000000000000000000000Cuota Ser                 
03600000000001529439768   000701224000300040422142350000000325707302019083000000000013550201909040000000001355020190909000000000135500R10                                                               0000000000000000000000                                                              Cuota Ser 201908300000000000000000000000Cuota Ser                 
03600000000001529439773   000700061000300040801631350000000325939602019083000000000099909201909040000000009990920190909000000000999090R10                                                               0000000000000000000000                                                              no vigent 201908300000000000000000000000no vigent                 
03600000000001529439773   000700061000300040801631350000000325941292019083000000000099909201909040000000009990920190909000000000999090R10                                                               0000000000000000000000                                                              MORA+90VE 201908300000000000000000000000MORA+90VE                 
03600000000001529439773   000700061000300040801631350000000325952712019083000000000099909201909040000000009990920190909000000000999090R10                                                               0000000000000000000000                                                              no vigent 201908300000000000000000000000no vigent                 
03600000000001529439773   000700061000300040801631350000000325952722019083000000000099909201909040000000009990920190909000000000999090R10                                                               0000000000000000000000                                                              no vigent 201908300000000000000000000000no vigent                 
03600000000001529439773   000700061000300040801631350000000325957702019083000000000099909201909040000000009990920190909000000000999090R10                                                               0000000000000000000000                                                              MORA+90VE 201908300000000000000000000000MORA+90VE                 
03600000000001529439773   000700061000300040801631350000000325958062019083000000000099909201909040000000009990920190909000000000999090R10                                                               0000000000000000000000                                                              MORA+90VE 201908300000000000000000000000MORA+90VE                 
03600000000001529439840   000701453000300040186651820000000325930432019083000000000150023201909040000000015002320190909000000001500230R15                                                               0000000000000000000000                                                              novigenter201908300000000000000000000000novigenter                
03600000000001529439840   000701453000300040186651820000000325933932019083000000000150023201909040000000015002320190909000000001500230R15                                                               0000000000000000000000                                                              novigenter201908300000000000000000000000novigenter                
03600000000001529439840   000701453000300040186651820000000325934592019083000000000150023201909040000000015002320190909000000001500230R15                                                               0000000000000000000000                                                              novigenter201908300000000000000000000000novigenter                
03600000000001529439840   000701453000300040186651820000000325944912019083000000000150009201909040000000015000920190909000000001500090R15                                                               0000000000000000000000                                                              mas90VeroS201908300000000000000000000000mas90VeroS                
03600000000001529439840   000701453000300040186651820000000325965832019083000000000150009201909040000000015000920190909000000001500090R15                                                               0000000000000000000000                                                              mas90VeroS201908300000000000000000000000mas90VeroS                
03600000000001529439840   000701453000300040186651820000000325966322019083000000000150009201909040000000015000920190909000000001500090R15                                                               0000000000000000000000                                                              mas90VeroS201908300000000000000000000000mas90VeroS                
03600000000001529440395   000700429000300040309291850000000325168432019083000000000088501000000000000000000000000000000000000000000000R10                                                               0000000000000000000000                                                              Naola_BC0 201908300000000000000000000000Naola_BC0                 
03600000000001529440395   000700429000300040309291850000000325168442019083000000000088501000000000000000000000000000000000000000000000R10                                                               0000000000000000000000                                                              Naola_BC0 201908300000000000000000000000Naola_BC0                 
03600000000001529440395   000700429000300040309291850000000325939172019083000000000099909201909040000000009990920190909000000000999090R10                                                               0000000000000000000000                                                              no vigent 201908300000000000000000000000no vigent                 
03600000000001529440395   000700429000300040309291850000000325936172019083000000000099909201909040000000009990920190909000000000999090R10                                                               0000000000000000000000                                                              NO VIG VE 201908300000000000000000000000NO VIG VE                 
03600000000001529440395   000700429000300040309291850000000325947052019083000000000099909201909040000000009990920190909000000000999090R10                                                               0000000000000000000000                                                              NO VIG VE 201908300000000000000000000000NO VIG VE                 
03600000000001529440395   000700429000300040309291850000000325947062019083000000000099909201909040000000009990920190909000000000999090R10                                                               0000000000000000000000                                                              NO VIG VE 201908300000000000000000000000NO VIG VE                 
03600000000001529440395   000700429000300040309291850000000325951972019083000000000099909201909040000000009990920190909000000000999090R10                                                               0000000000000000000000                                                              no vigent 201908300000000000000000000000no vigent                 
03600000000001529440395   000700429000300040309291850000000325951982019083000000000099909201909040000000009990920190909000000000999090R10                                                               0000000000000000000000                                                              no vigent 201908300000000000000000000000no vigent                 
03600000000001529442890   000701361000300040211540150000000325923552019083000000000015000000000000000000000000000000000000000000000000R15                                                               0000000000000000000000                                                              SET UDH 1 201908300000000000000000000000SET UDH 1                 
03600000000001529442904   000701330000300040133620640000000325915222019083000000000015000000000000000000000000000000000000000000000000R10                                                               0000000000000000000000                                                              SET UDH 1 201908300000000000000000000000SET UDH 1                 
03600000000001529442904   000701330000300040133620640000000325939932019083000000000099909201909040000000009990920190909000000000999090R10                                                               0000000000000000000000                                                              no vigent 201908300000000000000000000000no vigent                 
03600000000001529442904   000701330000300040133620640000000325953382019083000000000099909201909040000000009990920190909000000000999090R10                                                               0000000000000000000000                                                              no vigent 201908300000000000000000000000no vigent                 
03600000000001529442904   000701330000300040133620640000000325953372019083000000000099909201909040000000009990920190909000000000999090R10                                                               0000000000000000000000                                                              no vigent 201908300000000000000000000000no vigent                 
03600000000001529442906   000702432000300040205044770000000325939632019083000000000099909201909040000000009990920190909000000000999090R10                                                               0000000000000000000000                                                              no vigent 201908300000000000000000000000no vigent                 
03600000000001529442906   000702432000300040205044770000000325940242019083000000000099909201909040000000009990920190909000000000999090R10                                                               0000000000000000000000                                                              VERO GGRO 201908300000000000000000000000VERO GGRO                 
03600000000001529442906   000702432000300040205044770000000325941352019083000000000099909201909040000000009990920190909000000000999090R10                                                               0000000000000000000000                                                              MORA+90VE 201908300000000000000000000000MORA+90VE                 
03600000000001529442906   000702432000300040205044770000000325952772019083000000000099909201909040000000009990920190909000000000999090R10                                                               0000000000000000000000                                                              no vigent 201908300000000000000000000000no vigent                 
03600000000001529442906   000702432000300040205044770000000325952782019083000000000099909201909040000000009990920190909000000000999090R10                                                               0000000000000000000000                                                              no vigent 201908300000000000000000000000no vigent                 
03600000000001529442906   000702432000300040205044770000000325953962019083000000000099909201909040000000009990920190909000000000999090R10                                                               0000000000000000000000                                                              VERO GGRO 201908300000000000000000000000VERO GGRO                 
03600000000001529442906   000702432000300040205044770000000325954082019083000000000099909201909040000000009990920190909000000000999090R10                                                               0000000000000000000000                                                              VERO GGRO 201908300000000000000000000000VERO GGRO                 
03600000000001529442906   000702432000300040205044770000000325957862019083000000000099909201909040000000009990920190909000000000999090R10                                                               0000000000000000000000                                                              MORA+90VE 201908300000000000000000000000MORA+90VE                 
03600000000001529442906   000702432000300040205044770000000325958122019083000000000099909201909040000000009990920190909000000000999090R10                                                               0000000000000000000000                                                              MORA+90VE 201908300000000000000000000000MORA+90VE                 
03600000000001529442914   000702418000300040141437180000000325923802019083000000000015000000000000000000000000000000000000000000000000R15                                                               0000000000000000000000                                                              SET UDH 1 201908300000000000000000000000SET UDH 1                 
03600000000001529442917   000701811000300040197858070000000325926442019083000000000018000000000000000000000000000000000000000000000000R02                                                               0000000000000000000000                                                              SET UDH 1 201908300000000000000000000000SET UDH 1                 
03600000000001529443738   000700610000300040301310490000000325877772019083000000000150000000000000000000000000000000000000000000000000R10                                                               0000000000000000000000                                                              cuota     201908300000000000000000000000cuota                     
03600000000001529443738   000700610000300040301310490000000325877782019083000000000100000000000000000000000000000000000000000000000000R10                                                               0000000000000000000000                                                              cuota     201908300000000000000000000000cuota                     
03600000000001529443738   000700610000300040301310490000000325877792019083000000000075000000000000000000000000000000000000000000000000R10                                                               0000000000000000000000                                                              cuota     201908300000000000000000000000cuota                     
03600000000001529443840   000703435000300040097063110000000325941412019083000000000099909201909040000000009990920190909000000000999090R15                                                               0000000000000000000000                                                              VIGVER    201908300000000000000000000000VIGVER                    
03600000000001529443840   000703435000300040097063110000000325958252019083000000000099909201909040000000009990920190909000000000999090R15                                                               0000000000000000000000                                                              VIGVER    201908300000000000000000000000VIGVER                    
03600000000001529443840   000703435000300040097063110000000325958262019083000000000099909201909040000000009990920190909000000000999090R15                                                               0000000000000000000000                                                              VIGVER    201908300000000000000000000000VIGVER                    
03600000000001529443997   000701248000300048875634310000000321526622019083000000000081800000000000000000000000000000000000000000000000R10                                                               0000000000000000000000                                                              Naola_BCT 201908300000000000000000000000Naola_BCT                 
03600000000001529444297   000700559000300040315788980000000325939212019083000000000099909201909040000000009990920190909000000000999090R04                                                               0000000000000000000000                                                              no vigent 201908300000000000000000000000no vigent                 
03600000000001529444297   000700559000300040315788980000000325936232019083000000000099909201909040000000009990920190909000000000999090R04                                                               0000000000000000000000                                                              NO VIG VE 201908300000000000000000000000NO VIG VE                 
03600000000001529444297   000700559000300040315788980000000325947182019083000000000099909201909040000000009990920190909000000000999090R04                                                               0000000000000000000000                                                              NO VIG VE 201908300000000000000000000000NO VIG VE                 
03600000000001529444297   000700559000300040315788980000000325947172019083000000000099909201909040000000009990920190909000000000999090R04                                                               0000000000000000000000                                                              NO VIG VE 201908300000000000000000000000NO VIG VE                 
03600000000001529444297   000700559000300040315788980000000325952052019083000000000099909201909040000000009990920190909000000000999090R04                                                               0000000000000000000000                                                              no vigent 201908300000000000000000000000no vigent                 
03600000000001529444297   000700559000300040315788980000000325952062019083000000000099909201909040000000009990920190909000000000999090R04                                                               0000000000000000000000                                                              no vigent 201908300000000000000000000000no vigent                 
03600000000001529444298   000701538000300040083021830000000325939572019083000000000099909201909040000000009990920190909000000000999090R10                                                               0000000000000000000000                                                              no vigent 201908300000000000000000000000no vigent                 
03600000000001529444298   000701538000300040083021830000000325941242019083000000000099909201909040000000009990920190909000000000999090R10                                                               0000000000000000000000                                                              MORA+90VE 201908300000000000000000000000MORA+90VE                 
03600000000001529444298   000701538000300040083021830000000325942842019083000000000099909201909040000000009990920190909000000000999090R10                                                               0000000000000000000000                                                              VIGVER    201908300000000000000000000000VIGVER                    
03600000000001529444298   000701538000300040083021830000000325952652019083000000000099909201909040000000009990920190909000000000999090R10                                                               0000000000000000000000                                                              no vigent 201908300000000000000000000000no vigent                 
03600000000001529444298   000701538000300040083021830000000325952662019083000000000099909201909040000000009990920190909000000000999090R10                                                               0000000000000000000000                                                              no vigent 201908300000000000000000000000no vigent                 
03600000000001529444298   000701538000300040083021830000000325957652019083000000000099909201909040000000009990920190909000000000999090R10                                                               0000000000000000000000                                                              MORA+90VE 201908300000000000000000000000MORA+90VE                 
03600000000001529444298   000701538000300040083021830000000325958012019083000000000099909201909040000000009990920190909000000000999090R10                                                               0000000000000000000000                                                              MORA+90VE 201908300000000000000000000000MORA+90VE                 
03600000000001529444298   000701538000300040083021830000000325961112019083000000000099909201909040000000009990920190909000000000999090R10                                                               0000000000000000000000                                                              VIGVER    201908300000000000000000000000VIGVER                    
03600000000001529444298   000701538000300040083021830000000325961122019083000000000099909201909040000000009990920190909000000000999090R10                                                               0000000000000000000000                                                              VIGVER    201908300000000000000000000000VIGVER                    
03600000000001529444300   000701798000300040351474700000000325939742019083000000000099909201909040000000009990920190909000000000999090R04                                                               0000000000000000000000                                                              no vigent 201908300000000000000000000000no vigent                 
03600000000001529444300   000701798000300040351474700000000325952992019083000000000099909201909040000000009990920190909000000000999090R04                                                               0000000000000000000000                                                              no vigent 201908300000000000000000000000no vigent                 
03600000000001529444300   000701798000300040351474700000000325953002019083000000000099909201909040000000009990920190909000000000999090R04                                                               0000000000000000000000                                                              no vigent 201908300000000000000000000000no vigent                 
